{
  "_format": "hh-sol-artifact-1",
  "contractName": "SafeLite",
  "sourceName": "contracts/SafeLite.sol",
  "abi": [
    {
      "inputs": [
        {
          "internalType": "uint256",
          "name": "_chainId",
          "type": "uint256"
        },
        {
          "internalType": "address[]",
          "name": "_owners",
          "type": "address[]"
        },
        {
          "internalType": "uint256",
          "name": "_signaturesRequired",
          "type": "uint256"
        }
      ],
      "stateMutability": "nonpayable",
      "type": "constructor"
    },
    {
      "anonymous": false,
      "inputs": [
        {
          "indexed": true,
          "internalType": "address",
          "name": "sender",
          "type": "address"
        },
        {
          "indexed": false,
          "internalType": "uint256",
          "name": "amount",
          "type": "uint256"
        },
        {
          "indexed": false,
          "internalType": "uint256",
          "name": "balance",
          "type": "uint256"
        }
      ],
      "name": "Deposit",
      "type": "event"
    },
    {
      "anonymous": false,
      "inputs": [
        {
          "indexed": true,
          "internalType": "address",
          "name": "owner",
          "type": "address"
        },
        {
          "indexed": false,
          "internalType": "address payable",
          "name": "to",
          "type": "address"
        },
        {
          "indexed": false,
          "internalType": "uint256",
          "name": "value",
          "type": "uint256"
        },
        {
          "indexed": false,
          "internalType": "bytes",
          "name": "data",
          "type": "bytes"
        },
        {
          "indexed": false,
          "internalType": "uint256",
          "name": "nonce",
          "type": "uint256"
        },
        {
          "indexed": false,
          "internalType": "bytes32",
          "name": "hash",
          "type": "bytes32"
        },
        {
          "indexed": false,
          "internalType": "bytes",
          "name": "result",
          "type": "bytes"
        }
      ],
      "name": "ExecuteTransaction",
      "type": "event"
    },
    {
      "anonymous": false,
      "inputs": [
        {
          "indexed": true,
          "internalType": "address",
          "name": "owner",
          "type": "address"
        },
        {
          "indexed": false,
          "internalType": "bool",
          "name": "added",
          "type": "bool"
        }
      ],
      "name": "Owner",
      "type": "event"
    },
    {
      "anonymous": false,
      "inputs": [
        {
          "indexed": false,
          "internalType": "address",
          "name": "by",
          "type": "address"
        },
        {
          "indexed": false,
          "internalType": "uint256",
          "name": "nonce",
          "type": "uint256"
        },
        {
          "indexed": false,
          "internalType": "uint256",
          "name": "totalSignatures",
          "type": "uint256"
        },
        {
          "indexed": false,
          "internalType": "bool",
          "name": "isApproved",
          "type": "bool"
        }
      ],
      "name": "TransactionSigned",
      "type": "event"
    },
    {
      "inputs": [
        {
          "internalType": "address",
          "name": "newSigner",
          "type": "address"
        },
        {
          "internalType": "uint256",
          "name": "newSignaturesRequired",
          "type": "uint256"
        }
      ],
      "name": "addSigner",
      "outputs": [],
      "stateMutability": "nonpayable",
      "type": "function"
    },
    {
      "inputs": [],
      "name": "chainId",
      "outputs": [
        {
          "internalType": "uint256",
          "name": "",
          "type": "uint256"
        }
      ],
      "stateMutability": "view",
      "type": "function"
    },
    {
      "inputs": [
        {
          "internalType": "uint256",
          "name": "transactionId",
          "type": "uint256"
        }
      ],
      "name": "getApprovalCount",
      "outputs": [
        {
          "internalType": "uint256",
          "name": "",
          "type": "uint256"
        }
      ],
      "stateMutability": "view",
      "type": "function"
    },
    {
      "inputs": [],
      "name": "getBalance",
      "outputs": [
        {
          "internalType": "uint256",
          "name": "",
          "type": "uint256"
        }
      ],
      "stateMutability": "view",
      "type": "function"
    },
    {
      "inputs": [],
      "name": "getOwners",
      "outputs": [
        {
          "internalType": "address[]",
          "name": "",
          "type": "address[]"
        }
      ],
      "stateMutability": "view",
      "type": "function"
    },
    {
      "inputs": [
        {
          "internalType": "uint256",
          "name": "transactionId",
          "type": "uint256"
        }
      ],
      "name": "getRejectionCount",
      "outputs": [
        {
          "internalType": "uint256",
          "name": "",
          "type": "uint256"
        }
      ],
      "stateMutability": "view",
      "type": "function"
    },
    {
      "inputs": [],
      "name": "getRequiredSignatures",
      "outputs": [
        {
          "internalType": "uint256",
          "name": "",
          "type": "uint256"
        }
      ],
      "stateMutability": "view",
      "type": "function"
    },
    {
      "inputs": [
        {
          "internalType": "uint256",
          "name": "transactionId",
          "type": "uint256"
        }
      ],
      "name": "getTransaction",
      "outputs": [
        {
          "internalType": "address",
          "name": "",
          "type": "address"
        },
        {
          "internalType": "uint256",
          "name": "",
          "type": "uint256"
        },
        {
          "internalType": "bytes",
          "name": "",
          "type": "bytes"
        },
        {
          "internalType": "bool",
          "name": "",
          "type": "bool"
        },
        {
          "internalType": "uint256",
          "name": "",
          "type": "uint256"
        },
        {
          "internalType": "uint256",
          "name": "",
          "type": "uint256"
        },
        {
          "internalType": "bool",
          "name": "",
          "type": "bool"
        }
      ],
      "stateMutability": "view",
      "type": "function"
    },
    {
      "inputs": [
        {
          "internalType": "uint256",
          "name": "_nonce",
          "type": "uint256"
        },
        {
          "internalType": "address",
          "name": "to",
          "type": "address"
        },
        {
          "internalType": "uint256",
          "name": "value",
          "type": "uint256"
        },
        {
          "internalType": "bytes",
          "name": "data",
          "type": "bytes"
        }
      ],
      "name": "getTransactionHash",
      "outputs": [
        {
          "internalType": "bytes32",
          "name": "",
          "type": "bytes32"
        }
      ],
      "stateMutability": "view",
      "type": "function"
    },
    {
      "inputs": [
        {
          "internalType": "uint256",
          "name": "_nonce",
          "type": "uint256"
        },
        {
          "internalType": "address",
          "name": "signer",
          "type": "address"
        }
      ],
      "name": "hasSigned",
      "outputs": [
        {
          "internalType": "bool",
          "name": "",
          "type": "bool"
        }
      ],
      "stateMutability": "view",
      "type": "function"
    },
    {
      "inputs": [
        {
          "internalType": "address",
          "name": "",
          "type": "address"
        }
      ],
      "name": "isOwner",
      "outputs": [
        {
          "internalType": "bool",
          "name": "",
          "type": "bool"
        }
      ],
      "stateMutability": "view",
      "type": "function"
    },
    {
      "inputs": [],
      "name": "nonce",
      "outputs": [
        {
          "internalType": "uint256",
          "name": "",
          "type": "uint256"
        }
      ],
      "stateMutability": "view",
      "type": "function"
    },
    {
      "inputs": [
        {
          "internalType": "uint256",
          "name": "",
          "type": "uint256"
        }
      ],
      "name": "owners",
      "outputs": [
        {
          "internalType": "address",
          "name": "",
          "type": "address"
        }
      ],
      "stateMutability": "view",
      "type": "function"
    },
    {
      "inputs": [
        {
          "internalType": "bytes32",
          "name": "_hash",
          "type": "bytes32"
        },
        {
          "internalType": "bytes",
          "name": "_signature",
          "type": "bytes"
        }
      ],
      "name": "recover",
      "outputs": [
        {
          "internalType": "address",
          "name": "",
          "type": "address"
        }
      ],
      "stateMutability": "pure",
      "type": "function"
    },
    {
      "inputs": [
        {
          "internalType": "address",
          "name": "oldSigner",
          "type": "address"
        },
        {
          "internalType": "uint256",
          "name": "newSignaturesRequired",
          "type": "uint256"
        }
      ],
      "name": "removeSigner",
      "outputs": [],
      "stateMutability": "nonpayable",
      "type": "function"
    },
    {
      "inputs": [],
      "name": "safeLiteAddressBook",
      "outputs": [
        {
          "internalType": "contract SafeLiteAddressBook",
          "name": "",
          "type": "address"
        }
      ],
      "stateMutability": "view",
      "type": "function"
    },
    {
      "inputs": [
        {
          "internalType": "uint256",
          "name": "_nonce",
          "type": "uint256"
        },
        {
          "internalType": "address payable",
          "name": "to",
          "type": "address"
        },
        {
          "internalType": "uint256",
          "name": "value",
          "type": "uint256"
        },
        {
          "internalType": "bytes",
          "name": "data",
          "type": "bytes"
        },
        {
          "internalType": "bytes",
          "name": "signature",
          "type": "bytes"
        },
        {
          "internalType": "bool",
          "name": "isApproved",
          "type": "bool"
        }
      ],
      "name": "signTransaction",
      "outputs": [],
      "stateMutability": "nonpayable",
      "type": "function"
    },
    {
      "inputs": [],
      "name": "signaturesRequired",
      "outputs": [
        {
          "internalType": "uint256",
          "name": "",
          "type": "uint256"
        }
      ],
      "stateMutability": "view",
      "type": "function"
    },
    {
      "inputs": [
        {
          "internalType": "uint256",
          "name": "",
          "type": "uint256"
        }
      ],
      "name": "transactions",
      "outputs": [
        {
          "internalType": "address payable",
          "name": "to",
          "type": "address"
        },
        {
          "internalType": "uint256",
          "name": "value",
          "type": "uint256"
        },
        {
          "internalType": "bytes",
          "name": "data",
          "type": "bytes"
        },
        {
          "internalType": "bool",
          "name": "executed",
          "type": "bool"
        },
        {
          "internalType": "uint256",
          "name": "approvalCount",
          "type": "uint256"
        },
        {
          "internalType": "uint256",
          "name": "rejectionCount",
          "type": "uint256"
        },
        {
          "internalType": "bool",
          "name": "rejected",
          "type": "bool"
        }
      ],
      "stateMutability": "view",
      "type": "function"
    },
    {
      "inputs": [
        {
          "internalType": "uint256",
          "name": "newSignaturesRequired",
          "type": "uint256"
        }
      ],
      "name": "updateSignaturesRequired",
      "outputs": [],
      "stateMutability": "nonpayable",
      "type": "function"
    },
    {
      "stateMutability": "payable",
      "type": "receive"
    }
  ],
  "bytecode": "0x60806040523480156200001157600080fd5b50604051620022a5380380620022a583398101604081905262000034916200032f565b600081116200009e5760405162461bcd60e51b815260206004820152602b60248201527f636f6e7374727563746f723a206d757374206265206e6f6e2d7a65726f20736960448201526a19dcc81c995c5d5a5c995960aa1b60648201526084015b60405180910390fd5b600580546001600160a01b031916732cddb72c47596e320d84b653b2d6ae3279a68aaf179055600281905560005b8251811015620002f0576000838281518110620000ed57620000ed62000418565b6020026020010151905060006001600160a01b0316816001600160a01b0316036200015b5760405162461bcd60e51b815260206004820152601960248201527f636f6e7374727563746f723a207a65726f206164647265737300000000000000604482015260640162000095565b6001600160a01b03811660009081526020819052604090205460ff1615620001c65760405162461bcd60e51b815260206004820152601d60248201527f636f6e7374727563746f723a206f776e6572206e6f7420756e69717565000000604482015260640162000095565b6001600160a01b03818116600081815260208190526040808220805460ff191660019081179091558054808201825592527fb10e2d527612073b26eecdfd717e6a320cf44b4afac2b0732d9fcbe2b7fa0cf690910180546001600160a01b03191683179055600554905163e63e8aaf60e01b815260048101929092523060248301529091169063e63e8aaf90604401600060405180830381600087803b1580156200027057600080fd5b505af115801562000285573d6000803e3d6000fd5b505050506001600160a01b0381166000818152602081815260409182902054915160ff909216151582527ffe545f48304051c4029eb2da9927daa59da0414b4b084fdceaf2955b609b899e910160405180910390a25080620002e7816200042e565b915050620000cc565b50505060045562000456565b634e487b7160e01b600052604160045260246000fd5b80516001600160a01b03811681146200032a57600080fd5b919050565b6000806000606084860312156200034557600080fd5b8351602080860151919450906001600160401b03808211156200036757600080fd5b818701915087601f8301126200037c57600080fd5b815181811115620003915762000391620002fc565b8060051b604051601f19603f83011681018181108582111715620003b957620003b9620002fc565b60405291825284820192508381018501918a831115620003d857600080fd5b938501935b828510156200040157620003f18562000312565b84529385019392850192620003dd565b809750505050505050604084015190509250925092565b634e487b7160e01b600052603260045260246000fd5b6000600182016200044f57634e487b7160e01b600052601160045260246000fd5b5060010190565b611e3f80620004666000396000f3fe6080604052600436106101235760003560e01c80639315f47a116100a0578063ba7e7cab11610064578063ba7e7cab14610386578063ccd93998146103b6578063ce757d29146103cb578063cf60ba72146103e1578063d24ac7641461040157600080fd5b80639315f47a146102f85780639a8a0592146103185780639ace38c21461032e578063a0e67e2b1461034e578063affed0e01461037057600080fd5b806333ea3dc8116100e757806333ea3dc8146102455780633bad542614610278578063545a4a3c1461029857806365af1bed146102b8578063709df8d9146102d857600080fd5b8063025e7c271461016957806312065fe0146101a657806319045a25146101c35780632f54bf6e146101e35780633034a7421461022357600080fd5b36610164576040805134815247602082015233917f90890809c654f11d6e72a28fa60149770a0d11ec6c92319d6ceb2bb0a4ea1a15910160405180910390a2005b600080fd5b34801561017557600080fd5b506101896101843660046116c5565b610431565b6040516001600160a01b0390911681526020015b60405180910390f35b3480156101b257600080fd5b50475b60405190815260200161019d565b3480156101cf57600080fd5b506101896101de366004611781565b61045b565b3480156101ef57600080fd5b506102136101fe3660046117dd565b60006020819052908152604090205460ff1681565b604051901515815260200161019d565b34801561022f57600080fd5b5061024361023e3660046116c5565b6104a0565b005b34801561025157600080fd5b506102656102603660046116c5565b610543565b60405161019d9796959493929190611851565b34801561028457600080fd5b506102436102933660046118a0565b610643565b3480156102a457600080fd5b506101b56102b33660046118cc565b610915565b3480156102c457600080fd5b506102436102d33660046118a0565b610954565b3480156102e457600080fd5b506102136102f336600461192f565b610b2d565b34801561030457600080fd5b50600554610189906001600160a01b031681565b34801561032457600080fd5b506101b560045481565b34801561033a57600080fd5b506102656103493660046116c5565b610bed565b34801561035a57600080fd5b50610363610cc1565b60405161019d919061195f565b34801561037c57600080fd5b506101b560035481565b34801561039257600080fd5b506101b56103a13660046116c5565b60009081526006602052604090206004015490565b3480156103c257600080fd5b506002546101b5565b3480156103d757600080fd5b506101b560025481565b3480156103ed57600080fd5b506102436103fc3660046119ac565b610d23565b34801561040d57600080fd5b506101b561041c3660046116c5565b60009081526006602052604090206005015490565b6001818154811061044157600080fd5b6000918252602090912001546001600160a01b0316905081565b7f19457468657265756d205369676e6564204d6573736167653a0a3332000000006000908152601c839052603c81206104979083905b90611265565b90505b92915050565b3330146104c85760405162461bcd60e51b81526004016104bf90611a4e565b60405180910390fd5b6000811161053e5760405162461bcd60e51b815260206004820152603860248201527f7570646174655369676e61747572657352657175697265643a206d757374206260448201527f65206e6f6e2d7a65726f2073696773207265717569726564000000000000000060648201526084016104bf565b600255565b60008181526006602081905260408220805460018201546003830154600484015460058501549585015460028601805489986060988a9889988998899893976001600160a01b03909316969195919460ff9182169493909291169085906105a990611a70565b80601f01602080910402602001604051908101604052809291908181526020018280546105d590611a70565b80156106225780601f106105f757610100808354040283529160200191610622565b820191906000526020600020905b81548152906001019060200180831161060557829003601f168201915b50505050509450975097509750975097509750975050919395979092949650565b3330146106625760405162461bcd60e51b81526004016104bf90611a4e565b6001600160a01b03821660009081526020819052604090205460ff166106ca5760405162461bcd60e51b815260206004820152601760248201527f72656d6f76655369676e65723a206e6f74206f776e657200000000000000000060448201526064016104bf565b6000811161072f5760405162461bcd60e51b815260206004820152602c60248201527f72656d6f76655369676e65723a206d757374206265206e6f6e2d7a65726f207360448201526b1a59dcc81c995c5d5a5c995960a21b60648201526084016104bf565b6001600160a01b0382166000908152602081905260408120805460ff191690555b60015481101561085457826001600160a01b03166001828154811061077757610777611aaa565b6000918252602090912001546001600160a01b03160361084257600180546107a0908290611ad6565b815481106107b0576107b0611aaa565b600091825260209091200154600180546001600160a01b0390921691839081106107dc576107dc611aaa565b9060005260206000200160006101000a8154816001600160a01b0302191690836001600160a01b03160217905550600180548061081b5761081b611ae9565b600082815260209020810160001990810180546001600160a01b0319169055019055610854565b8061084c81611aff565b915050610750565b50600281905560055460405163eeda273d60e01b81526001600160a01b0384811660048301523060248301529091169063eeda273d906044015b600060405180830381600087803b1580156108a857600080fd5b505af11580156108bc573d6000803e3d6000fd5b505050506001600160a01b0382166000818152602081815260409182902054915160ff909216151582527ffe545f48304051c4029eb2da9927daa59da0414b4b084fdceaf2955b609b899e910160405180910390a25050565b6000306004548686868660405160200161093496959493929190611b18565b604051602081830303815290604052805190602001209050949350505050565b3330146109735760405162461bcd60e51b81526004016104bf90611a4e565b6001600160a01b0382166109c95760405162461bcd60e51b815260206004820152601760248201527f6164645369676e65723a207a65726f206164647265737300000000000000000060448201526064016104bf565b6001600160a01b03821660009081526020819052604090205460ff1615610a325760405162461bcd60e51b815260206004820152601b60248201527f6164645369676e65723a206f776e6572206e6f7420756e69717565000000000060448201526064016104bf565b60008111610a945760405162461bcd60e51b815260206004820152602960248201527f6164645369676e65723a206d757374206265206e6f6e2d7a65726f2073696773604482015268081c995c5d5a5c995960ba1b60648201526084016104bf565b6001600160a01b03828116600081815260208190526040808220805460ff191660019081179091558054808201825592527fb10e2d527612073b26eecdfd717e6a320cf44b4afac2b0732d9fcbe2b7fa0cf690910180546001600160a01b031916831790556002849055600554905163e63e8aaf60e01b815260048101929092523060248301529091169063e63e8aaf9060440161088e565b6001600160a01b03811660009081526020819052604081205460ff16610b955760405162461bcd60e51b815260206004820152601760248201527f6861735369676e65643a206e6f7420616e206f776e657200000000000000000060448201526064016104bf565b60008381526006602090815260408083206001600160a01b0386168452600781019092529091205460ff1680610be557506001600160a01b038316600090815260088201602052604090205460ff165b949350505050565b6006602052600090815260409020805460018201546002830180546001600160a01b03909316939192610c1f90611a70565b80601f0160208091040260200160405190810160405280929190818152602001828054610c4b90611a70565b8015610c985780601f10610c6d57610100808354040283529160200191610c98565b820191906000526020600020905b815481529060010190602001808311610c7b57829003601f168201915b505050600384015460048501546005860154600690960154949560ff9283169591945092501687565b60606001805480602002602001604051908101604052809291908181526020018280548015610d1957602002820191906000526020600020905b81546001600160a01b03168152600190910190602001808311610cfb575b5050505050905090565b3360009081526020819052604090205460ff16610da85760405162461bcd60e51b815260206004820152603e60248201527f7369676e5472616e73616374696f6e3a206f6e6c79206f776e6572732063616e60448201527f20696e697469617465206f72207369676e207472616e73616374696f6e73000060648201526084016104bf565b60035486148015610dce57506000868152600660205260409020546001600160a01b0316155b15610e6b576003805460009081526006602052604080822080546001600160a01b0319166001600160a01b038a16179055825482528082206001018790559154815220600201610e1e8482611bbe565b506003805460009081526006602081905260408083208401805460ff1990811690915584548452818420600401849055845484528184206005018490559354835290912001805490911690555b6000868152600660205260409020600381015460ff1615610edc5760405162461bcd60e51b815260206004820152602560248201527f5472616e73616374696f6e2068617320616c7265616479206265656e2065786560448201526418dd5d195960da1b60648201526084016104bf565b6000610eea88888888610915565b90506000610f2985610491847f19457468657265756d205369676e6564204d6573736167653a0a3332000000006000908152601c91909152603c902090565b6001600160a01b03811660009081526020819052604090205490915060ff16610f945760405162461bcd60e51b815260206004820152601e60248201527f5369676e6174757265206973206e6f742066726f6d20616e206f776e6572000060448201526064016104bf565b6001600160a01b038116600090815260078401602052604090205460ff16158015610fda57506001600160a01b038116600090815260088401602052604090205460ff16155b6110265760405162461bcd60e51b815260206004820152601a60248201527f5369676e617475726520616c7265616479207265636f7264656400000000000060448201526064016104bf565b83156110e2576001600160a01b038116600090815260078401602052604090205460ff16156110a35760405162461bcd60e51b815260206004820152602360248201527f417070726f76616c207369676e617475726520616c7265616479207265636f7260448201526219195960ea1b60648201526084016104bf565b6001600160a01b03811660009081526007840160205260408120805460ff19166001179055600484018054916110d883611aff565b9190505550611194565b6001600160a01b038116600090815260088401602052604090205460ff16156111595760405162461bcd60e51b8152602060048201526024808201527f52656a656374696f6e207369676e617475726520616c7265616479207265636f6044820152631c99195960e21b60648201526084016104bf565b6001600160a01b03811660009081526008840160205260408120805460ff191660011790556005840180549161118e83611aff565b91905055505b7fc0cc5d22a5a88c9568ddae4f76c4dac2dfa7dc7136c162d9b832ac75d4488398818a866111c65785600501546111cc565b85600401545b604080516001600160a01b039094168452602084019290925290820152851515606082015260800160405180910390a160025460058401546001546112119190611ad6565b10156112435760068301805460ff191660011790556003805490600061123683611aff565b919050555050505061125d565b6002548360040154106112595761125989611289565b5050505b505050505050565b6000806000611274858561146f565b91509150611281816114b4565b509392505050565b6000818152600660205260409020600381015460ff16156113055760405162461bcd60e51b815260206004820152603060248201527f657865637574655472616e73616374696f6e3a207472616e73616374696f6e2060448201526f185b1c9958591e48195e1958dd5d195960821b60648201526084016104bf565b8054600182015460405160009283926001600160a01b039091169161132e906002870190611cf1565b60006040518083038185875af1925050503d806000811461136b576040519150601f19603f3d011682016040523d82523d6000602084013e611370565b606091505b5091509150816113c25760405162461bcd60e51b815260206004820152601d60248201527f657865637574655472616e73616374696f6e3a207478206661696c656400000060448201526064016104bf565b6003808401805460ff1916600117905580549060006113e083611aff565b90915550508254600184015460405133927f9053e9ec105157fac8c9308d63e6b22be5f50fe915a3e567419b624311a02d74926001600160a01b03909116916002880190899061143890859085908590602001611cfd565b604051602081830303815290604052805190602001208760405161146196959493929190611d30565b60405180910390a250505050565b60008082516041036114a55760208301516040840151606085015160001a61149987828585611601565b945094505050506114ad565b506000905060025b9250929050565b60008160048111156114c8576114c8611df3565b036114d05750565b60018160048111156114e4576114e4611df3565b036115315760405162461bcd60e51b815260206004820152601860248201527f45434453413a20696e76616c6964207369676e6174757265000000000000000060448201526064016104bf565b600281600481111561154557611545611df3565b036115925760405162461bcd60e51b815260206004820152601f60248201527f45434453413a20696e76616c6964207369676e6174757265206c656e6774680060448201526064016104bf565b60038160048111156115a6576115a6611df3565b036115fe5760405162461bcd60e51b815260206004820152602260248201527f45434453413a20696e76616c6964207369676e6174757265202773272076616c604482015261756560f01b60648201526084016104bf565b50565b6000807f7fffffffffffffffffffffffffffffff5d576e7357a4501ddfe92f46681b20a083111561163857506000905060036116bc565b6040805160008082526020820180845289905260ff881692820192909252606081018690526080810185905260019060a0016020604051602081039080840390855afa15801561168c573d6000803e3d6000fd5b5050604051601f1901519150506001600160a01b0381166116b5576000600192509250506116bc565b9150600090505b94509492505050565b6000602082840312156116d757600080fd5b5035919050565b634e487b7160e01b600052604160045260246000fd5b600082601f83011261170557600080fd5b813567ffffffffffffffff80821115611720576117206116de565b604051601f8301601f19908116603f01168101908282118183101715611748576117486116de565b8160405283815286602085880101111561176157600080fd5b836020870160208301376000602085830101528094505050505092915050565b6000806040838503121561179457600080fd5b82359150602083013567ffffffffffffffff8111156117b257600080fd5b6117be858286016116f4565b9150509250929050565b6001600160a01b03811681146115fe57600080fd5b6000602082840312156117ef57600080fd5b81356117fa816117c8565b9392505050565b60005b8381101561181c578181015183820152602001611804565b50506000910152565b6000815180845261183d816020860160208601611801565b601f01601f19169290920160200192915050565b60018060a01b038816815286602082015260e06040820152600061187860e0830188611825565b951515606083015250608081019390935260a0830191909152151560c0909101529392505050565b600080604083850312156118b357600080fd5b82356118be816117c8565b946020939093013593505050565b600080600080608085870312156118e257600080fd5b8435935060208501356118f4816117c8565b925060408501359150606085013567ffffffffffffffff81111561191757600080fd5b611923878288016116f4565b91505092959194509250565b6000806040838503121561194257600080fd5b823591506020830135611954816117c8565b809150509250929050565b6020808252825182820181905260009190848201906040850190845b818110156119a05783516001600160a01b03168352928401929184019160010161197b565b50909695505050505050565b60008060008060008060c087890312156119c557600080fd5b8635955060208701356119d7816117c8565b945060408701359350606087013567ffffffffffffffff808211156119fb57600080fd5b611a078a838b016116f4565b94506080890135915080821115611a1d57600080fd5b50611a2a89828a016116f4565b92505060a08701358015158114611a4057600080fd5b809150509295509295509295565b6020808252600890820152672737ba1029b2b63360c11b604082015260600190565b600181811c90821680611a8457607f821691505b602082108103611aa457634e487b7160e01b600052602260045260246000fd5b50919050565b634e487b7160e01b600052603260045260246000fd5b634e487b7160e01b600052601160045260246000fd5b8181038181111561049a5761049a611ac0565b634e487b7160e01b600052603160045260246000fd5b600060018201611b1157611b11611ac0565b5060010190565b60006bffffffffffffffffffffffff19808960601b168352876014840152866034840152808660601b166054840152508360688301528251611b61816088850160208701611801565b91909101608801979650505050505050565b601f821115611bb957600081815260208120601f850160051c81016020861015611b9a5750805b601f850160051c820191505b8181101561125d57828155600101611ba6565b505050565b815167ffffffffffffffff811115611bd857611bd86116de565b611bec81611be68454611a70565b84611b73565b602080601f831160018114611c215760008415611c095750858301515b600019600386901b1c1916600185901b17855561125d565b600085815260208120601f198616915b82811015611c5057888601518255948401946001909101908401611c31565b5085821015611c6e5787850151600019600388901b60f8161c191681555b5050505050600190811b01905550565b60008154611c8b81611a70565b60018281168015611ca35760018114611cb857611ce7565b60ff1984168752821515830287019450611ce7565b8560005260208060002060005b85811015611cde5781548a820152908401908201611cc5565b50505082870194505b5050505092915050565b60006104978284611c7e565b6bffffffffffffffffffffffff198460601b1681528260148201526000611d276034830184611c7e565b95945050505050565b60018060a01b038716815260006020878184015260c0604084015260008754611d5881611a70565b8060c087015260e0600180841660008114611d7a5760018114611d9457611dc2565b60ff1985168984015283151560051b890183019550611dc2565b8c6000528660002060005b85811015611dba5781548b8201860152908301908801611d9f565b8a0184019650505b505050505086606085015285608085015283810360a0850152611de58186611825565b9a9950505050505050505050565b634e487b7160e01b600052602160045260246000fdfea26469706673582212203708f85361ce44821842c69b6404483a38e3dd410b4e0ac81d28c424c4f2b32664736f6c63430008140033",
  "linkReferences": {},
  "deployedLinkReferences": {}
}