{
  "_format": "hh-sol-artifact-1",
  "contractName": "SafeLite",
  "sourceName": "contracts/SafeLite.sol",
  "abi": [
    {
      "inputs": [
        {
          "internalType": "uint256",
          "name": "_chainId",
          "type": "uint256"
        },
        {
          "internalType": "address[]",
          "name": "_owners",
          "type": "address[]"
        },
        {
          "internalType": "uint256",
          "name": "_signaturesRequired",
          "type": "uint256"
        }
      ],
      "stateMutability": "nonpayable",
      "type": "constructor"
    },
    {
      "anonymous": false,
      "inputs": [
        {
          "indexed": true,
          "internalType": "address",
          "name": "sender",
          "type": "address"
        },
        {
          "indexed": false,
          "internalType": "uint256",
          "name": "amount",
          "type": "uint256"
        },
        {
          "indexed": false,
          "internalType": "uint256",
          "name": "balance",
          "type": "uint256"
        }
      ],
      "name": "Deposit",
      "type": "event"
    },
    {
      "anonymous": false,
      "inputs": [
        {
          "indexed": true,
          "internalType": "address",
          "name": "owner",
          "type": "address"
        },
        {
          "indexed": false,
          "internalType": "address payable",
          "name": "to",
          "type": "address"
        },
        {
          "indexed": false,
          "internalType": "uint256",
          "name": "value",
          "type": "uint256"
        },
        {
          "indexed": false,
          "internalType": "bytes",
          "name": "data",
          "type": "bytes"
        },
        {
          "indexed": false,
          "internalType": "uint256",
          "name": "nonce",
          "type": "uint256"
        },
        {
          "indexed": false,
          "internalType": "bytes32",
          "name": "hash",
          "type": "bytes32"
        },
        {
          "indexed": false,
          "internalType": "bytes",
          "name": "result",
          "type": "bytes"
        }
      ],
      "name": "ExecuteTransaction",
      "type": "event"
    },
    {
      "anonymous": false,
      "inputs": [
        {
          "indexed": true,
          "internalType": "address",
          "name": "owner",
          "type": "address"
        },
        {
          "indexed": false,
          "internalType": "bool",
          "name": "added",
          "type": "bool"
        }
      ],
      "name": "Owner",
      "type": "event"
    },
    {
      "anonymous": false,
      "inputs": [
        {
          "indexed": false,
          "internalType": "address",
          "name": "by",
          "type": "address"
        },
        {
          "indexed": false,
          "internalType": "uint256",
          "name": "nonce",
          "type": "uint256"
        },
        {
          "indexed": false,
          "internalType": "uint256",
          "name": "totalSignatures",
          "type": "uint256"
        }
      ],
      "name": "TransactionSigned",
      "type": "event"
    },
    {
      "inputs": [
        {
          "internalType": "address",
          "name": "newSigner",
          "type": "address"
        },
        {
          "internalType": "uint256",
          "name": "newSignaturesRequired",
          "type": "uint256"
        }
      ],
      "name": "addSigner",
      "outputs": [],
      "stateMutability": "nonpayable",
      "type": "function"
    },
    {
      "inputs": [],
      "name": "chainId",
      "outputs": [
        {
          "internalType": "uint256",
          "name": "",
          "type": "uint256"
        }
      ],
      "stateMutability": "view",
      "type": "function"
    },
    {
      "inputs": [],
      "name": "getBalance",
      "outputs": [
        {
          "internalType": "uint256",
          "name": "",
          "type": "uint256"
        }
      ],
      "stateMutability": "view",
      "type": "function"
    },
    {
      "inputs": [],
      "name": "getOwners",
      "outputs": [
        {
          "internalType": "address[]",
          "name": "",
          "type": "address[]"
        }
      ],
      "stateMutability": "view",
      "type": "function"
    },
    {
      "inputs": [
        {
          "internalType": "uint256",
          "name": "transactionId",
          "type": "uint256"
        }
      ],
      "name": "getSignatureCount",
      "outputs": [
        {
          "internalType": "uint256",
          "name": "",
          "type": "uint256"
        }
      ],
      "stateMutability": "view",
      "type": "function"
    },
    {
      "inputs": [
        {
          "internalType": "uint256",
          "name": "transactionId",
          "type": "uint256"
        }
      ],
      "name": "getTransaction",
      "outputs": [
        {
          "internalType": "address",
          "name": "",
          "type": "address"
        },
        {
          "internalType": "uint256",
          "name": "",
          "type": "uint256"
        },
        {
          "internalType": "bytes",
          "name": "",
          "type": "bytes"
        },
        {
          "internalType": "bool",
          "name": "",
          "type": "bool"
        },
        {
          "internalType": "uint256",
          "name": "",
          "type": "uint256"
        }
      ],
      "stateMutability": "view",
      "type": "function"
    },
    {
      "inputs": [
        {
          "internalType": "uint256",
          "name": "_nonce",
          "type": "uint256"
        },
        {
          "internalType": "address",
          "name": "to",
          "type": "address"
        },
        {
          "internalType": "uint256",
          "name": "value",
          "type": "uint256"
        },
        {
          "internalType": "bytes",
          "name": "data",
          "type": "bytes"
        }
      ],
      "name": "getTransactionHash",
      "outputs": [
        {
          "internalType": "bytes32",
          "name": "",
          "type": "bytes32"
        }
      ],
      "stateMutability": "view",
      "type": "function"
    },
    {
      "inputs": [
        {
          "internalType": "address",
          "name": "",
          "type": "address"
        }
      ],
      "name": "isOwner",
      "outputs": [
        {
          "internalType": "bool",
          "name": "",
          "type": "bool"
        }
      ],
      "stateMutability": "view",
      "type": "function"
    },
    {
      "inputs": [],
      "name": "nonce",
      "outputs": [
        {
          "internalType": "uint256",
          "name": "",
          "type": "uint256"
        }
      ],
      "stateMutability": "view",
      "type": "function"
    },
    {
      "inputs": [
        {
          "internalType": "uint256",
          "name": "",
          "type": "uint256"
        }
      ],
      "name": "owners",
      "outputs": [
        {
          "internalType": "address",
          "name": "",
          "type": "address"
        }
      ],
      "stateMutability": "view",
      "type": "function"
    },
    {
      "inputs": [
        {
          "internalType": "bytes32",
          "name": "_hash",
          "type": "bytes32"
        },
        {
          "internalType": "bytes",
          "name": "_signature",
          "type": "bytes"
        }
      ],
      "name": "recover",
      "outputs": [
        {
          "internalType": "address",
          "name": "",
          "type": "address"
        }
      ],
      "stateMutability": "pure",
      "type": "function"
    },
    {
      "inputs": [
        {
          "internalType": "address",
          "name": "oldSigner",
          "type": "address"
        },
        {
          "internalType": "uint256",
          "name": "newSignaturesRequired",
          "type": "uint256"
        }
      ],
      "name": "removeSigner",
      "outputs": [],
      "stateMutability": "nonpayable",
      "type": "function"
    },
    {
      "inputs": [],
      "name": "safeLiteAddressBook",
      "outputs": [
        {
          "internalType": "contract SafeLiteAddressBook",
          "name": "",
          "type": "address"
        }
      ],
      "stateMutability": "view",
      "type": "function"
    },
    {
      "inputs": [
        {
          "internalType": "uint256",
          "name": "_nonce",
          "type": "uint256"
        },
        {
          "internalType": "address payable",
          "name": "to",
          "type": "address"
        },
        {
          "internalType": "uint256",
          "name": "value",
          "type": "uint256"
        },
        {
          "internalType": "bytes",
          "name": "data",
          "type": "bytes"
        },
        {
          "internalType": "bytes",
          "name": "signature",
          "type": "bytes"
        }
      ],
      "name": "signTransaction",
      "outputs": [],
      "stateMutability": "nonpayable",
      "type": "function"
    },
    {
      "inputs": [],
      "name": "signaturesRequired",
      "outputs": [
        {
          "internalType": "uint256",
          "name": "",
          "type": "uint256"
        }
      ],
      "stateMutability": "view",
      "type": "function"
    },
    {
      "inputs": [
        {
          "internalType": "uint256",
          "name": "",
          "type": "uint256"
        }
      ],
      "name": "transactions",
      "outputs": [
        {
          "internalType": "address payable",
          "name": "to",
          "type": "address"
        },
        {
          "internalType": "uint256",
          "name": "value",
          "type": "uint256"
        },
        {
          "internalType": "bytes",
          "name": "data",
          "type": "bytes"
        },
        {
          "internalType": "bool",
          "name": "executed",
          "type": "bool"
        },
        {
          "internalType": "uint256",
          "name": "signatureCount",
          "type": "uint256"
        }
      ],
      "stateMutability": "view",
      "type": "function"
    },
    {
      "inputs": [
        {
          "internalType": "uint256",
          "name": "newSignaturesRequired",
          "type": "uint256"
        }
      ],
      "name": "updateSignaturesRequired",
      "outputs": [],
      "stateMutability": "nonpayable",
      "type": "function"
    },
    {
      "stateMutability": "payable",
      "type": "receive"
    }
  ],
  "bytecode": "0x60806040523480156200001157600080fd5b5060405162001e9538038062001e9583398101604081905262000034916200032f565b600081116200009e5760405162461bcd60e51b815260206004820152602b60248201527f636f6e7374727563746f723a206d757374206265206e6f6e2d7a65726f20736960448201526a19dcc81c995c5d5a5c995960aa1b60648201526084015b60405180910390fd5b600580546001600160a01b0319167328a56395523aa1feef1cac427fbfa5e8b4767f91179055600281905560005b8251811015620002f0576000838281518110620000ed57620000ed62000418565b6020026020010151905060006001600160a01b0316816001600160a01b0316036200015b5760405162461bcd60e51b815260206004820152601960248201527f636f6e7374727563746f723a207a65726f206164647265737300000000000000604482015260640162000095565b6001600160a01b03811660009081526020819052604090205460ff1615620001c65760405162461bcd60e51b815260206004820152601d60248201527f636f6e7374727563746f723a206f776e6572206e6f7420756e69717565000000604482015260640162000095565b6001600160a01b03818116600081815260208190526040808220805460ff191660019081179091558054808201825592527fb10e2d527612073b26eecdfd717e6a320cf44b4afac2b0732d9fcbe2b7fa0cf690910180546001600160a01b03191683179055600554905163e63e8aaf60e01b815260048101929092523060248301529091169063e63e8aaf90604401600060405180830381600087803b1580156200027057600080fd5b505af115801562000285573d6000803e3d6000fd5b505050506001600160a01b0381166000818152602081815260409182902054915160ff909216151582527ffe545f48304051c4029eb2da9927daa59da0414b4b084fdceaf2955b609b899e910160405180910390a25080620002e7816200042e565b915050620000cc565b50505060045562000456565b634e487b7160e01b600052604160045260246000fd5b80516001600160a01b03811681146200032a57600080fd5b919050565b6000806000606084860312156200034557600080fd5b8351602080860151919450906001600160401b03808211156200036757600080fd5b818701915087601f8301126200037c57600080fd5b815181811115620003915762000391620002fc565b8060051b604051601f19603f83011681018181108582111715620003b957620003b9620002fc565b60405291825284820192508381018501918a831115620003d857600080fd5b938501935b828510156200040157620003f18562000312565b84529385019392850192620003dd565b809750505050505050604084015190509250925092565b634e487b7160e01b600052603260045260246000fd5b6000600182016200044f57634e487b7160e01b600052601160045260246000fd5b5060010190565b611a2f80620004666000396000f3fe6080604052600436106101025760003560e01c806365af1bed116100955780639ace38c2116100645780639ace38c21461031b578063a0e67e2b1461033b578063affed0e01461035d578063ce757d2914610373578063eec908dc1461038957600080fd5b806365af1bed146102955780637743007d146102b55780639315f47a146102e55780639a8a05921461030557600080fd5b80633034a742116100d15780633034a7421461020257806333ea3dc8146102245780633bad542614610255578063545a4a3c1461027557600080fd5b8063025e7c271461014857806312065fe01461018557806319045a25146101a25780632f54bf6e146101c257600080fd5b36610143576040805134815247602082015233917f90890809c654f11d6e72a28fa60149770a0d11ec6c92319d6ceb2bb0a4ea1a15910160405180910390a2005b600080fd5b34801561015457600080fd5b5061016861016336600461130d565b6103a9565b6040516001600160a01b0390911681526020015b60405180910390f35b34801561019157600080fd5b50475b60405190815260200161017c565b3480156101ae57600080fd5b506101686101bd3660046113c9565b6103d3565b3480156101ce57600080fd5b506101f26101dd366004611425565b60006020819052908152604090205460ff1681565b604051901515815260200161017c565b34801561020e57600080fd5b5061022261021d36600461130d565b610418565b005b34801561023057600080fd5b5061024461023f36600461130d565b6104bb565b60405161017c959493929190611499565b34801561026157600080fd5b506102226102703660046114d4565b61059f565b34801561028157600080fd5b50610194610290366004611500565b61080c565b3480156102a157600080fd5b506102226102b03660046114d4565b61084b565b3480156102c157600080fd5b506101946102d036600461130d565b60009081526006602052604090206004015490565b3480156102f157600080fd5b50600554610168906001600160a01b031681565b34801561031157600080fd5b5061019460045481565b34801561032757600080fd5b5061024461033636600461130d565b610a25565b34801561034757600080fd5b50610350610aea565b60405161017c9190611563565b34801561036957600080fd5b5061019460035481565b34801561037f57600080fd5b5061019460025481565b34801561039557600080fd5b506102226103a43660046115b0565b610b4c565b600181815481106103b957600080fd5b6000918252602090912001546001600160a01b0316905081565b7f19457468657265756d205369676e6564204d6573736167653a0a3332000000006000908152601c839052603c812061040f9083905b90610ead565b90505b92915050565b3330146104405760405162461bcd60e51b81526004016104379061163a565b60405180910390fd5b600081116104b65760405162461bcd60e51b815260206004820152603860248201527f7570646174655369676e61747572657352657175697265643a206d757374206260448201527f65206e6f6e2d7a65726f207369677320726571756972656400000000000000006064820152608401610437565b600255565b6000818152600660205260408120805460018201546003830154600484015460028501805487966060968896879692956001600160a01b03909216949093909260ff169190839061050b9061165c565b80601f01602080910402602001604051908101604052809291908181526020018280546105379061165c565b80156105845780601f1061055957610100808354040283529160200191610584565b820191906000526020600020905b81548152906001019060200180831161056757829003601f168201915b50505050509250955095509550955095505091939590929450565b3330146105be5760405162461bcd60e51b81526004016104379061163a565b6001600160a01b03821660009081526020819052604090205460ff166106265760405162461bcd60e51b815260206004820152601760248201527f72656d6f76655369676e65723a206e6f74206f776e65720000000000000000006044820152606401610437565b6000811161068b5760405162461bcd60e51b815260206004820152602c60248201527f72656d6f76655369676e65723a206d757374206265206e6f6e2d7a65726f207360448201526b1a59dcc81c995c5d5a5c995960a21b6064820152608401610437565b6001600160a01b0382166000908152602081905260408120805460ff191690555b6001548110156107b057826001600160a01b0316600182815481106106d3576106d3611696565b6000918252602090912001546001600160a01b03160361079e57600180546106fc9082906116c2565b8154811061070c5761070c611696565b600091825260209091200154600180546001600160a01b03909216918390811061073857610738611696565b9060005260206000200160006101000a8154816001600160a01b0302191690836001600160a01b031602179055506001805480610777576107776116d5565b600082815260209020810160001990810180546001600160a01b03191690550190556107b0565b806107a8816116eb565b9150506106ac565b5060028190556001600160a01b0382166000818152602081815260409182902054915160ff909216151582527ffe545f48304051c4029eb2da9927daa59da0414b4b084fdceaf2955b609b899e91015b60405180910390a25050565b6000306004548686868660405160200161082b96959493929190611704565b604051602081830303815290604052805190602001209050949350505050565b33301461086a5760405162461bcd60e51b81526004016104379061163a565b6001600160a01b0382166108c05760405162461bcd60e51b815260206004820152601760248201527f6164645369676e65723a207a65726f20616464726573730000000000000000006044820152606401610437565b6001600160a01b03821660009081526020819052604090205460ff16156109295760405162461bcd60e51b815260206004820152601b60248201527f6164645369676e65723a206f776e6572206e6f7420756e6971756500000000006044820152606401610437565b6000811161098b5760405162461bcd60e51b815260206004820152602960248201527f6164645369676e65723a206d757374206265206e6f6e2d7a65726f2073696773604482015268081c995c5d5a5c995960ba1b6064820152608401610437565b6001600160a01b03821660008181526020818152604091829020805460ff19166001908117825580548082019091557fb10e2d527612073b26eecdfd717e6a320cf44b4afac2b0732d9fcbe2b7fa0cf60180546001600160a01b03191685179055600285905554915160ff909216151582527ffe545f48304051c4029eb2da9927daa59da0414b4b084fdceaf2955b609b899e9101610800565b6006602052600090815260409020805460018201546002830180546001600160a01b03909316939192610a579061165c565b80601f0160208091040260200160405190810160405280929190818152602001828054610a839061165c565b8015610ad05780601f10610aa557610100808354040283529160200191610ad0565b820191906000526020600020905b815481529060010190602001808311610ab357829003601f168201915b505050506003830154600490930154919260ff1691905085565b60606001805480602002602001604051908101604052809291908181526020018280548015610b4257602002820191906000526020600020905b81546001600160a01b03168152600190910190602001808311610b24575b5050505050905090565b3360009081526020819052604090205460ff16610bd15760405162461bcd60e51b815260206004820152603e60248201527f7369676e5472616e73616374696f6e3a206f6e6c79206f776e6572732063616e60448201527f20696e697469617465206f72207369676e207472616e73616374696f6e7300006064820152608401610437565b60035485148015610bf757506000858152600660205260409020546001600160a01b0316155b15610c71576003805460009081526006602052604080822080546001600160a01b0319166001600160a01b038916179055825482528082206001018690559154815220600201610c4783826117ae565b50600380546000908152600660205260408082208301805460ff1916905591548152908120600401555b6000858152600660205260409020600381015460ff1615610ce25760405162461bcd60e51b815260206004820152602560248201527f5472616e73616374696f6e2068617320616c7265616479206265656e2065786560448201526418dd5d195960da1b6064820152608401610437565b6000610cf08787878761080c565b90506000610d2f84610409847f19457468657265756d205369676e6564204d6573736167653a0a3332000000006000908152601c91909152603c902090565b6001600160a01b03811660009081526020819052604090205490915060ff16610d9a5760405162461bcd60e51b815260206004820152601e60248201527f5369676e6174757265206973206e6f742066726f6d20616e206f776e657200006044820152606401610437565b6001600160a01b038116600090815260058401602052604090205460ff1615610e055760405162461bcd60e51b815260206004820152601a60248201527f5369676e617475726520616c7265616479207265636f726465640000000000006044820152606401610437565b6001600160a01b03811660009081526005840160205260408120805460ff1916600117905560048401805491610e3a836116eb565b90915550506004830154604080516001600160a01b0384168152602081018b905280820192909252517faa2d7c90b922d8f731344d0dd1eb0b0df439b3a9b17b5a1aa55b71103de906ed9181900360600190a1600254836004015410610ea357610ea388610ed1565b5050505050505050565b6000806000610ebc85856110b7565b91509150610ec9816110fc565b509392505050565b6000818152600660205260409020600381015460ff1615610f4d5760405162461bcd60e51b815260206004820152603060248201527f657865637574655472616e73616374696f6e3a207472616e73616374696f6e2060448201526f185b1c9958591e48195e1958dd5d195960821b6064820152608401610437565b8054600182015460405160009283926001600160a01b0390911691610f769060028701906118e1565b60006040518083038185875af1925050503d8060008114610fb3576040519150601f19603f3d011682016040523d82523d6000602084013e610fb8565b606091505b50915091508161100a5760405162461bcd60e51b815260206004820152601d60248201527f657865637574655472616e73616374696f6e3a207478206661696c65640000006044820152606401610437565b6003808401805460ff191660011790558054906000611028836116eb565b90915550508254600184015460405133927f9053e9ec105157fac8c9308d63e6b22be5f50fe915a3e567419b624311a02d74926001600160a01b039091169160028801908990611080908590859085906020016118ed565b60405160208183030381529060405280519060200120876040516110a996959493929190611920565b60405180910390a250505050565b60008082516041036110ed5760208301516040840151606085015160001a6110e187828585611249565b945094505050506110f5565b506000905060025b9250929050565b6000816004811115611110576111106119e3565b036111185750565b600181600481111561112c5761112c6119e3565b036111795760405162461bcd60e51b815260206004820152601860248201527f45434453413a20696e76616c6964207369676e617475726500000000000000006044820152606401610437565b600281600481111561118d5761118d6119e3565b036111da5760405162461bcd60e51b815260206004820152601f60248201527f45434453413a20696e76616c6964207369676e6174757265206c656e677468006044820152606401610437565b60038160048111156111ee576111ee6119e3565b036112465760405162461bcd60e51b815260206004820152602260248201527f45434453413a20696e76616c6964207369676e6174757265202773272076616c604482015261756560f01b6064820152608401610437565b50565b6000807f7fffffffffffffffffffffffffffffff5d576e7357a4501ddfe92f46681b20a08311156112805750600090506003611304565b6040805160008082526020820180845289905260ff881692820192909252606081018690526080810185905260019060a0016020604051602081039080840390855afa1580156112d4573d6000803e3d6000fd5b5050604051601f1901519150506001600160a01b0381166112fd57600060019250925050611304565b9150600090505b94509492505050565b60006020828403121561131f57600080fd5b5035919050565b634e487b7160e01b600052604160045260246000fd5b600082601f83011261134d57600080fd5b813567ffffffffffffffff8082111561136857611368611326565b604051601f8301601f19908116603f0116810190828211818310171561139057611390611326565b816040528381528660208588010111156113a957600080fd5b836020870160208301376000602085830101528094505050505092915050565b600080604083850312156113dc57600080fd5b82359150602083013567ffffffffffffffff8111156113fa57600080fd5b6114068582860161133c565b9150509250929050565b6001600160a01b038116811461124657600080fd5b60006020828403121561143757600080fd5b813561144281611410565b9392505050565b60005b8381101561146457818101518382015260200161144c565b50506000910152565b60008151808452611485816020860160208601611449565b601f01601f19169290920160200192915050565b60018060a01b038616815284602082015260a0604082015260006114c060a083018661146d565b931515606083015250608001529392505050565b600080604083850312156114e757600080fd5b82356114f281611410565b946020939093013593505050565b6000806000806080858703121561151657600080fd5b84359350602085013561152881611410565b925060408501359150606085013567ffffffffffffffff81111561154b57600080fd5b6115578782880161133c565b91505092959194509250565b6020808252825182820181905260009190848201906040850190845b818110156115a45783516001600160a01b03168352928401929184019160010161157f565b50909695505050505050565b600080600080600060a086880312156115c857600080fd5b8535945060208601356115da81611410565b935060408601359250606086013567ffffffffffffffff808211156115fe57600080fd5b61160a89838a0161133c565b9350608088013591508082111561162057600080fd5b5061162d8882890161133c565b9150509295509295909350565b6020808252600890820152672737ba1029b2b63360c11b604082015260600190565b600181811c9082168061167057607f821691505b60208210810361169057634e487b7160e01b600052602260045260246000fd5b50919050565b634e487b7160e01b600052603260045260246000fd5b634e487b7160e01b600052601160045260246000fd5b81810381811115610412576104126116ac565b634e487b7160e01b600052603160045260246000fd5b6000600182016116fd576116fd6116ac565b5060010190565b60006bffffffffffffffffffffffff19808960601b168352876014840152866034840152808660601b16605484015250836068830152825161174d816088850160208701611449565b91909101608801979650505050505050565b601f8211156117a957600081815260208120601f850160051c810160208610156117865750805b601f850160051c820191505b818110156117a557828155600101611792565b5050505b505050565b815167ffffffffffffffff8111156117c8576117c8611326565b6117dc816117d6845461165c565b8461175f565b602080601f83116001811461181157600084156117f95750858301515b600019600386901b1c1916600185901b1785556117a5565b600085815260208120601f198616915b8281101561184057888601518255948401946001909101908401611821565b508582101561185e5787850151600019600388901b60f8161c191681555b5050505050600190811b01905550565b6000815461187b8161165c565b6001828116801561189357600181146118a8576118d7565b60ff19841687528215158302870194506118d7565b8560005260208060002060005b858110156118ce5781548a8201529084019082016118b5565b50505082870194505b5050505092915050565b600061040f828461186e565b6bffffffffffffffffffffffff198460601b1681528260148201526000611917603483018461186e565b95945050505050565b60018060a01b038716815260006020878184015260c06040840152600087546119488161165c565b8060c087015260e060018084166000811461196a5760018114611984576119b2565b60ff1985168984015283151560051b8901830195506119b2565b8c6000528660002060005b858110156119aa5781548b820186015290830190880161198f565b8a0184019650505b505050505086606085015285608085015283810360a08501526119d5818661146d565b9a9950505050505050505050565b634e487b7160e01b600052602160045260246000fdfea2646970667358221220e6975915f44489b5ecf11428bcc6388bc5851fecf9cfe0df6c3ef6912363f33764736f6c63430008140033",
  "linkReferences": {},
  "deployedLinkReferences": {}
}