{
  "_format": "hh-sol-artifact-1",
  "contractName": "SafeLite",
  "sourceName": "contracts/SafeLite.sol",
  "abi": [
    {
      "inputs": [
        {
          "internalType": "uint256",
          "name": "_chainId",
          "type": "uint256"
        },
        {
          "internalType": "address[]",
          "name": "_owners",
          "type": "address[]"
        },
        {
          "internalType": "uint256",
          "name": "_signaturesRequired",
          "type": "uint256"
        }
      ],
      "stateMutability": "nonpayable",
      "type": "constructor"
    },
    {
      "anonymous": false,
      "inputs": [
        {
          "indexed": true,
          "internalType": "address",
          "name": "sender",
          "type": "address"
        },
        {
          "indexed": false,
          "internalType": "uint256",
          "name": "amount",
          "type": "uint256"
        },
        {
          "indexed": false,
          "internalType": "uint256",
          "name": "balance",
          "type": "uint256"
        }
      ],
      "name": "Deposit",
      "type": "event"
    },
    {
      "anonymous": false,
      "inputs": [
        {
          "indexed": true,
          "internalType": "address",
          "name": "owner",
          "type": "address"
        },
        {
          "indexed": false,
          "internalType": "address payable",
          "name": "to",
          "type": "address"
        },
        {
          "indexed": false,
          "internalType": "uint256",
          "name": "value",
          "type": "uint256"
        },
        {
          "indexed": false,
          "internalType": "bytes",
          "name": "data",
          "type": "bytes"
        },
        {
          "indexed": false,
          "internalType": "uint256",
          "name": "nonce",
          "type": "uint256"
        },
        {
          "indexed": false,
          "internalType": "bytes32",
          "name": "hash",
          "type": "bytes32"
        },
        {
          "indexed": false,
          "internalType": "bytes",
          "name": "result",
          "type": "bytes"
        }
      ],
      "name": "ExecuteTransaction",
      "type": "event"
    },
    {
      "anonymous": false,
      "inputs": [
        {
          "indexed": true,
          "internalType": "address",
          "name": "owner",
          "type": "address"
        },
        {
          "indexed": false,
          "internalType": "bool",
          "name": "added",
          "type": "bool"
        }
      ],
      "name": "Owner",
      "type": "event"
    },
    {
      "anonymous": false,
      "inputs": [
        {
          "indexed": false,
          "internalType": "address",
          "name": "by",
          "type": "address"
        },
        {
          "indexed": false,
          "internalType": "uint256",
          "name": "nonce",
          "type": "uint256"
        },
        {
          "indexed": false,
          "internalType": "uint256",
          "name": "totalSignatures",
          "type": "uint256"
        }
      ],
      "name": "TransactionSigned",
      "type": "event"
    },
    {
      "inputs": [
        {
          "internalType": "address",
          "name": "newSigner",
          "type": "address"
        },
        {
          "internalType": "uint256",
          "name": "newSignaturesRequired",
          "type": "uint256"
        }
      ],
      "name": "addSigner",
      "outputs": [],
      "stateMutability": "nonpayable",
      "type": "function"
    },
    {
      "inputs": [],
      "name": "chainId",
      "outputs": [
        {
          "internalType": "uint256",
          "name": "",
          "type": "uint256"
        }
      ],
      "stateMutability": "view",
      "type": "function"
    },
    {
      "inputs": [],
      "name": "getBalance",
      "outputs": [
        {
          "internalType": "uint256",
          "name": "",
          "type": "uint256"
        }
      ],
      "stateMutability": "view",
      "type": "function"
    },
    {
      "inputs": [],
      "name": "getOwners",
      "outputs": [
        {
          "internalType": "address[]",
          "name": "",
          "type": "address[]"
        }
      ],
      "stateMutability": "view",
      "type": "function"
    },
    {
      "inputs": [],
      "name": "getRequiredSignatures",
      "outputs": [
        {
          "internalType": "uint256",
          "name": "",
          "type": "uint256"
        }
      ],
      "stateMutability": "view",
      "type": "function"
    },
    {
      "inputs": [
        {
          "internalType": "uint256",
          "name": "transactionId",
          "type": "uint256"
        }
      ],
      "name": "getSignatureCount",
      "outputs": [
        {
          "internalType": "uint256",
          "name": "",
          "type": "uint256"
        }
      ],
      "stateMutability": "view",
      "type": "function"
    },
    {
      "inputs": [
        {
          "internalType": "uint256",
          "name": "transactionId",
          "type": "uint256"
        }
      ],
      "name": "getTransaction",
      "outputs": [
        {
          "internalType": "address",
          "name": "",
          "type": "address"
        },
        {
          "internalType": "uint256",
          "name": "",
          "type": "uint256"
        },
        {
          "internalType": "bytes",
          "name": "",
          "type": "bytes"
        },
        {
          "internalType": "bool",
          "name": "",
          "type": "bool"
        },
        {
          "internalType": "uint256",
          "name": "",
          "type": "uint256"
        }
      ],
      "stateMutability": "view",
      "type": "function"
    },
    {
      "inputs": [
        {
          "internalType": "uint256",
          "name": "_nonce",
          "type": "uint256"
        },
        {
          "internalType": "address",
          "name": "to",
          "type": "address"
        },
        {
          "internalType": "uint256",
          "name": "value",
          "type": "uint256"
        },
        {
          "internalType": "bytes",
          "name": "data",
          "type": "bytes"
        }
      ],
      "name": "getTransactionHash",
      "outputs": [
        {
          "internalType": "bytes32",
          "name": "",
          "type": "bytes32"
        }
      ],
      "stateMutability": "view",
      "type": "function"
    },
    {
      "inputs": [
        {
          "internalType": "address",
          "name": "",
          "type": "address"
        }
      ],
      "name": "isOwner",
      "outputs": [
        {
          "internalType": "bool",
          "name": "",
          "type": "bool"
        }
      ],
      "stateMutability": "view",
      "type": "function"
    },
    {
      "inputs": [],
      "name": "nonce",
      "outputs": [
        {
          "internalType": "uint256",
          "name": "",
          "type": "uint256"
        }
      ],
      "stateMutability": "view",
      "type": "function"
    },
    {
      "inputs": [
        {
          "internalType": "uint256",
          "name": "",
          "type": "uint256"
        }
      ],
      "name": "owners",
      "outputs": [
        {
          "internalType": "address",
          "name": "",
          "type": "address"
        }
      ],
      "stateMutability": "view",
      "type": "function"
    },
    {
      "inputs": [
        {
          "internalType": "bytes32",
          "name": "_hash",
          "type": "bytes32"
        },
        {
          "internalType": "bytes",
          "name": "_signature",
          "type": "bytes"
        }
      ],
      "name": "recover",
      "outputs": [
        {
          "internalType": "address",
          "name": "",
          "type": "address"
        }
      ],
      "stateMutability": "pure",
      "type": "function"
    },
    {
      "inputs": [
        {
          "internalType": "address",
          "name": "oldSigner",
          "type": "address"
        },
        {
          "internalType": "uint256",
          "name": "newSignaturesRequired",
          "type": "uint256"
        }
      ],
      "name": "removeSigner",
      "outputs": [],
      "stateMutability": "nonpayable",
      "type": "function"
    },
    {
      "inputs": [],
      "name": "safeLiteAddressBook",
      "outputs": [
        {
          "internalType": "contract SafeLiteAddressBook",
          "name": "",
          "type": "address"
        }
      ],
      "stateMutability": "view",
      "type": "function"
    },
    {
      "inputs": [
        {
          "internalType": "uint256",
          "name": "_nonce",
          "type": "uint256"
        },
        {
          "internalType": "address payable",
          "name": "to",
          "type": "address"
        },
        {
          "internalType": "uint256",
          "name": "value",
          "type": "uint256"
        },
        {
          "internalType": "bytes",
          "name": "data",
          "type": "bytes"
        },
        {
          "internalType": "bytes",
          "name": "signature",
          "type": "bytes"
        }
      ],
      "name": "signTransaction",
      "outputs": [],
      "stateMutability": "nonpayable",
      "type": "function"
    },
    {
      "inputs": [],
      "name": "signaturesRequired",
      "outputs": [
        {
          "internalType": "uint256",
          "name": "",
          "type": "uint256"
        }
      ],
      "stateMutability": "view",
      "type": "function"
    },
    {
      "inputs": [
        {
          "internalType": "uint256",
          "name": "",
          "type": "uint256"
        }
      ],
      "name": "transactions",
      "outputs": [
        {
          "internalType": "address payable",
          "name": "to",
          "type": "address"
        },
        {
          "internalType": "uint256",
          "name": "value",
          "type": "uint256"
        },
        {
          "internalType": "bytes",
          "name": "data",
          "type": "bytes"
        },
        {
          "internalType": "bool",
          "name": "executed",
          "type": "bool"
        },
        {
          "internalType": "uint256",
          "name": "signatureCount",
          "type": "uint256"
        }
      ],
      "stateMutability": "view",
      "type": "function"
    },
    {
      "inputs": [
        {
          "internalType": "uint256",
          "name": "newSignaturesRequired",
          "type": "uint256"
        }
      ],
      "name": "updateSignaturesRequired",
      "outputs": [],
      "stateMutability": "nonpayable",
      "type": "function"
    },
    {
      "stateMutability": "payable",
      "type": "receive"
    }
  ],
  "bytecode": "0x60806040523480156200001157600080fd5b5060405162001f1938038062001f1983398101604081905262000034916200032f565b600081116200009e5760405162461bcd60e51b815260206004820152602b60248201527f636f6e7374727563746f723a206d757374206265206e6f6e2d7a65726f20736960448201526a19dcc81c995c5d5a5c995960aa1b60648201526084015b60405180910390fd5b600580546001600160a01b031916732cddb72c47596e320d84b653b2d6ae3279a68aaf179055600281905560005b8251811015620002f0576000838281518110620000ed57620000ed62000418565b6020026020010151905060006001600160a01b0316816001600160a01b0316036200015b5760405162461bcd60e51b815260206004820152601960248201527f636f6e7374727563746f723a207a65726f206164647265737300000000000000604482015260640162000095565b6001600160a01b03811660009081526020819052604090205460ff1615620001c65760405162461bcd60e51b815260206004820152601d60248201527f636f6e7374727563746f723a206f776e6572206e6f7420756e69717565000000604482015260640162000095565b6001600160a01b03818116600081815260208190526040808220805460ff191660019081179091558054808201825592527fb10e2d527612073b26eecdfd717e6a320cf44b4afac2b0732d9fcbe2b7fa0cf690910180546001600160a01b03191683179055600554905163e63e8aaf60e01b815260048101929092523060248301529091169063e63e8aaf90604401600060405180830381600087803b1580156200027057600080fd5b505af115801562000285573d6000803e3d6000fd5b505050506001600160a01b0381166000818152602081815260409182902054915160ff909216151582527ffe545f48304051c4029eb2da9927daa59da0414b4b084fdceaf2955b609b899e910160405180910390a25080620002e7816200042e565b915050620000cc565b50505060045562000456565b634e487b7160e01b600052604160045260246000fd5b80516001600160a01b03811681146200032a57600080fd5b919050565b6000806000606084860312156200034557600080fd5b8351602080860151919450906001600160401b03808211156200036757600080fd5b818701915087601f8301126200037c57600080fd5b815181811115620003915762000391620002fc565b8060051b604051601f19603f83011681018181108582111715620003b957620003b9620002fc565b60405291825284820192508381018501918a831115620003d857600080fd5b938501935b828510156200040157620003f18562000312565b84529385019392850192620003dd565b809750505050505050604084015190509250925092565b634e487b7160e01b600052603260045260246000fd5b6000600182016200044f57634e487b7160e01b600052601160045260246000fd5b5060010190565b611ab380620004666000396000f3fe60806040526004361061010d5760003560e01c80637743007d11610095578063a0e67e2b11610064578063a0e67e2b14610346578063affed0e014610368578063ccd939981461037e578063ce757d2914610393578063eec908dc146103a957600080fd5b80637743007d146102c05780639315f47a146102f05780639a8a0592146103105780639ace38c21461032657600080fd5b80633034a742116100dc5780633034a7421461020d57806333ea3dc81461022f5780633bad542614610260578063545a4a3c1461028057806365af1bed146102a057600080fd5b8063025e7c271461015357806312065fe01461019057806319045a25146101ad5780632f54bf6e146101cd57600080fd5b3661014e576040805134815247602082015233917f90890809c654f11d6e72a28fa60149770a0d11ec6c92319d6ceb2bb0a4ea1a15910160405180910390a2005b600080fd5b34801561015f57600080fd5b5061017361016e366004611391565b6103c9565b6040516001600160a01b0390911681526020015b60405180910390f35b34801561019c57600080fd5b50475b604051908152602001610187565b3480156101b957600080fd5b506101736101c836600461144d565b6103f3565b3480156101d957600080fd5b506101fd6101e83660046114a9565b60006020819052908152604090205460ff1681565b6040519015158152602001610187565b34801561021957600080fd5b5061022d610228366004611391565b610438565b005b34801561023b57600080fd5b5061024f61024a366004611391565b6104db565b60405161018795949392919061151d565b34801561026c57600080fd5b5061022d61027b366004611558565b6105bf565b34801561028c57600080fd5b5061019f61029b366004611584565b610891565b3480156102ac57600080fd5b5061022d6102bb366004611558565b6108d0565b3480156102cc57600080fd5b5061019f6102db366004611391565b60009081526006602052604090206004015490565b3480156102fc57600080fd5b50600554610173906001600160a01b031681565b34801561031c57600080fd5b5061019f60045481565b34801561033257600080fd5b5061024f610341366004611391565b610aa9565b34801561035257600080fd5b5061035b610b6e565b60405161018791906115e7565b34801561037457600080fd5b5061019f60035481565b34801561038a57600080fd5b5060025461019f565b34801561039f57600080fd5b5061019f60025481565b3480156103b557600080fd5b5061022d6103c4366004611634565b610bd0565b600181815481106103d957600080fd5b6000918252602090912001546001600160a01b0316905081565b7f19457468657265756d205369676e6564204d6573736167653a0a3332000000006000908152601c839052603c812061042f9083905b90610f31565b90505b92915050565b3330146104605760405162461bcd60e51b8152600401610457906116be565b60405180910390fd5b600081116104d65760405162461bcd60e51b815260206004820152603860248201527f7570646174655369676e61747572657352657175697265643a206d757374206260448201527f65206e6f6e2d7a65726f207369677320726571756972656400000000000000006064820152608401610457565b600255565b6000818152600660205260408120805460018201546003830154600484015460028501805487966060968896879692956001600160a01b03909216949093909260ff169190839061052b906116e0565b80601f0160208091040260200160405190810160405280929190818152602001828054610557906116e0565b80156105a45780601f10610579576101008083540402835291602001916105a4565b820191906000526020600020905b81548152906001019060200180831161058757829003601f168201915b50505050509250955095509550955095505091939590929450565b3330146105de5760405162461bcd60e51b8152600401610457906116be565b6001600160a01b03821660009081526020819052604090205460ff166106465760405162461bcd60e51b815260206004820152601760248201527f72656d6f76655369676e65723a206e6f74206f776e65720000000000000000006044820152606401610457565b600081116106ab5760405162461bcd60e51b815260206004820152602c60248201527f72656d6f76655369676e65723a206d757374206265206e6f6e2d7a65726f207360448201526b1a59dcc81c995c5d5a5c995960a21b6064820152608401610457565b6001600160a01b0382166000908152602081905260408120805460ff191690555b6001548110156107d057826001600160a01b0316600182815481106106f3576106f361171a565b6000918252602090912001546001600160a01b0316036107be576001805461071c908290611746565b8154811061072c5761072c61171a565b600091825260209091200154600180546001600160a01b0390921691839081106107585761075861171a565b9060005260206000200160006101000a8154816001600160a01b0302191690836001600160a01b03160217905550600180548061079757610797611759565b600082815260209020810160001990810180546001600160a01b03191690550190556107d0565b806107c88161176f565b9150506106cc565b50600281905560055460405163eeda273d60e01b81526001600160a01b0384811660048301523060248301529091169063eeda273d906044015b600060405180830381600087803b15801561082457600080fd5b505af1158015610838573d6000803e3d6000fd5b505050506001600160a01b0382166000818152602081815260409182902054915160ff909216151582527ffe545f48304051c4029eb2da9927daa59da0414b4b084fdceaf2955b609b899e910160405180910390a25050565b600030600454868686866040516020016108b096959493929190611788565b604051602081830303815290604052805190602001209050949350505050565b3330146108ef5760405162461bcd60e51b8152600401610457906116be565b6001600160a01b0382166109455760405162461bcd60e51b815260206004820152601760248201527f6164645369676e65723a207a65726f20616464726573730000000000000000006044820152606401610457565b6001600160a01b03821660009081526020819052604090205460ff16156109ae5760405162461bcd60e51b815260206004820152601b60248201527f6164645369676e65723a206f776e6572206e6f7420756e6971756500000000006044820152606401610457565b60008111610a105760405162461bcd60e51b815260206004820152602960248201527f6164645369676e65723a206d757374206265206e6f6e2d7a65726f2073696773604482015268081c995c5d5a5c995960ba1b6064820152608401610457565b6001600160a01b03828116600081815260208190526040808220805460ff191660019081179091558054808201825592527fb10e2d527612073b26eecdfd717e6a320cf44b4afac2b0732d9fcbe2b7fa0cf690910180546001600160a01b031916831790556002849055600554905163e63e8aaf60e01b815260048101929092523060248301529091169063e63e8aaf9060440161080a565b6006602052600090815260409020805460018201546002830180546001600160a01b03909316939192610adb906116e0565b80601f0160208091040260200160405190810160405280929190818152602001828054610b07906116e0565b8015610b545780601f10610b2957610100808354040283529160200191610b54565b820191906000526020600020905b815481529060010190602001808311610b3757829003601f168201915b505050506003830154600490930154919260ff1691905085565b60606001805480602002602001604051908101604052809291908181526020018280548015610bc657602002820191906000526020600020905b81546001600160a01b03168152600190910190602001808311610ba8575b5050505050905090565b3360009081526020819052604090205460ff16610c555760405162461bcd60e51b815260206004820152603e60248201527f7369676e5472616e73616374696f6e3a206f6e6c79206f776e6572732063616e60448201527f20696e697469617465206f72207369676e207472616e73616374696f6e7300006064820152608401610457565b60035485148015610c7b57506000858152600660205260409020546001600160a01b0316155b15610cf5576003805460009081526006602052604080822080546001600160a01b0319166001600160a01b038916179055825482528082206001018690559154815220600201610ccb8382611832565b50600380546000908152600660205260408082208301805460ff1916905591548152908120600401555b6000858152600660205260409020600381015460ff1615610d665760405162461bcd60e51b815260206004820152602560248201527f5472616e73616374696f6e2068617320616c7265616479206265656e2065786560448201526418dd5d195960da1b6064820152608401610457565b6000610d7487878787610891565b90506000610db384610429847f19457468657265756d205369676e6564204d6573736167653a0a3332000000006000908152601c91909152603c902090565b6001600160a01b03811660009081526020819052604090205490915060ff16610e1e5760405162461bcd60e51b815260206004820152601e60248201527f5369676e6174757265206973206e6f742066726f6d20616e206f776e657200006044820152606401610457565b6001600160a01b038116600090815260058401602052604090205460ff1615610e895760405162461bcd60e51b815260206004820152601a60248201527f5369676e617475726520616c7265616479207265636f726465640000000000006044820152606401610457565b6001600160a01b03811660009081526005840160205260408120805460ff1916600117905560048401805491610ebe8361176f565b90915550506004830154604080516001600160a01b0384168152602081018b905280820192909252517faa2d7c90b922d8f731344d0dd1eb0b0df439b3a9b17b5a1aa55b71103de906ed9181900360600190a1600254836004015410610f2757610f2788610f55565b5050505050505050565b6000806000610f40858561113b565b91509150610f4d81611180565b509392505050565b6000818152600660205260409020600381015460ff1615610fd15760405162461bcd60e51b815260206004820152603060248201527f657865637574655472616e73616374696f6e3a207472616e73616374696f6e2060448201526f185b1c9958591e48195e1958dd5d195960821b6064820152608401610457565b8054600182015460405160009283926001600160a01b0390911691610ffa906002870190611965565b60006040518083038185875af1925050503d8060008114611037576040519150601f19603f3d011682016040523d82523d6000602084013e61103c565b606091505b50915091508161108e5760405162461bcd60e51b815260206004820152601d60248201527f657865637574655472616e73616374696f6e3a207478206661696c65640000006044820152606401610457565b6003808401805460ff1916600117905580549060006110ac8361176f565b90915550508254600184015460405133927f9053e9ec105157fac8c9308d63e6b22be5f50fe915a3e567419b624311a02d74926001600160a01b03909116916002880190899061110490859085908590602001611971565b604051602081830303815290604052805190602001208760405161112d969594939291906119a4565b60405180910390a250505050565b60008082516041036111715760208301516040840151606085015160001a611165878285856112cd565b94509450505050611179565b506000905060025b9250929050565b600081600481111561119457611194611a67565b0361119c5750565b60018160048111156111b0576111b0611a67565b036111fd5760405162461bcd60e51b815260206004820152601860248201527f45434453413a20696e76616c6964207369676e617475726500000000000000006044820152606401610457565b600281600481111561121157611211611a67565b0361125e5760405162461bcd60e51b815260206004820152601f60248201527f45434453413a20696e76616c6964207369676e6174757265206c656e677468006044820152606401610457565b600381600481111561127257611272611a67565b036112ca5760405162461bcd60e51b815260206004820152602260248201527f45434453413a20696e76616c6964207369676e6174757265202773272076616c604482015261756560f01b6064820152608401610457565b50565b6000807f7fffffffffffffffffffffffffffffff5d576e7357a4501ddfe92f46681b20a08311156113045750600090506003611388565b6040805160008082526020820180845289905260ff881692820192909252606081018690526080810185905260019060a0016020604051602081039080840390855afa158015611358573d6000803e3d6000fd5b5050604051601f1901519150506001600160a01b03811661138157600060019250925050611388565b9150600090505b94509492505050565b6000602082840312156113a357600080fd5b5035919050565b634e487b7160e01b600052604160045260246000fd5b600082601f8301126113d157600080fd5b813567ffffffffffffffff808211156113ec576113ec6113aa565b604051601f8301601f19908116603f01168101908282118183101715611414576114146113aa565b8160405283815286602085880101111561142d57600080fd5b836020870160208301376000602085830101528094505050505092915050565b6000806040838503121561146057600080fd5b82359150602083013567ffffffffffffffff81111561147e57600080fd5b61148a858286016113c0565b9150509250929050565b6001600160a01b03811681146112ca57600080fd5b6000602082840312156114bb57600080fd5b81356114c681611494565b9392505050565b60005b838110156114e85781810151838201526020016114d0565b50506000910152565b600081518084526115098160208601602086016114cd565b601f01601f19169290920160200192915050565b60018060a01b038616815284602082015260a06040820152600061154460a08301866114f1565b931515606083015250608001529392505050565b6000806040838503121561156b57600080fd5b823561157681611494565b946020939093013593505050565b6000806000806080858703121561159a57600080fd5b8435935060208501356115ac81611494565b925060408501359150606085013567ffffffffffffffff8111156115cf57600080fd5b6115db878288016113c0565b91505092959194509250565b6020808252825182820181905260009190848201906040850190845b818110156116285783516001600160a01b031683529284019291840191600101611603565b50909695505050505050565b600080600080600060a0868803121561164c57600080fd5b85359450602086013561165e81611494565b935060408601359250606086013567ffffffffffffffff8082111561168257600080fd5b61168e89838a016113c0565b935060808801359150808211156116a457600080fd5b506116b1888289016113c0565b9150509295509295909350565b6020808252600890820152672737ba1029b2b63360c11b604082015260600190565b600181811c908216806116f457607f821691505b60208210810361171457634e487b7160e01b600052602260045260246000fd5b50919050565b634e487b7160e01b600052603260045260246000fd5b634e487b7160e01b600052601160045260246000fd5b8181038181111561043257610432611730565b634e487b7160e01b600052603160045260246000fd5b60006001820161178157611781611730565b5060010190565b60006bffffffffffffffffffffffff19808960601b168352876014840152866034840152808660601b1660548401525083606883015282516117d18160888501602087016114cd565b91909101608801979650505050505050565b601f82111561182d57600081815260208120601f850160051c8101602086101561180a5750805b601f850160051c820191505b8181101561182957828155600101611816565b5050505b505050565b815167ffffffffffffffff81111561184c5761184c6113aa565b6118608161185a84546116e0565b846117e3565b602080601f831160018114611895576000841561187d5750858301515b600019600386901b1c1916600185901b178555611829565b600085815260208120601f198616915b828110156118c4578886015182559484019460019091019084016118a5565b50858210156118e25787850151600019600388901b60f8161c191681555b5050505050600190811b01905550565b600081546118ff816116e0565b60018281168015611917576001811461192c5761195b565b60ff198416875282151583028701945061195b565b8560005260208060002060005b858110156119525781548a820152908401908201611939565b50505082870194505b5050505092915050565b600061042f82846118f2565b6bffffffffffffffffffffffff198460601b168152826014820152600061199b60348301846118f2565b95945050505050565b60018060a01b038716815260006020878184015260c06040840152600087546119cc816116e0565b8060c087015260e06001808416600081146119ee5760018114611a0857611a36565b60ff1985168984015283151560051b890183019550611a36565b8c6000528660002060005b85811015611a2e5781548b8201860152908301908801611a13565b8a0184019650505b505050505086606085015285608085015283810360a0850152611a5981866114f1565b9a9950505050505050505050565b634e487b7160e01b600052602160045260246000fdfea2646970667358221220ff2889cfbe5aa72f4b08f3ac084f16acef88de499d968e7331f50cee305ac3a364736f6c63430008140033",
  "linkReferences": {},
  "deployedLinkReferences": {}
}